{
  "contractName": "WordFactory",
  "abi": [
    {
      "constant": true,
      "inputs": [
        {
          "name": "",
          "type": "uint256"
        }
      ],
      "name": "words",
      "outputs": [
        {
          "name": "owner",
          "type": "address"
        },
        {
          "name": "text",
          "type": "string"
        },
        {
          "name": "color",
          "type": "string"
        },
        {
          "name": "size",
          "type": "uint256"
        },
        {
          "name": "time",
          "type": "uint256"
        }
      ],
      "payable": false,
      "stateMutability": "view",
      "type": "function"
    },
    {
      "constant": true,
      "inputs": [],
      "name": "owner",
      "outputs": [
        {
          "name": "",
          "type": "address"
        }
      ],
      "payable": false,
      "stateMutability": "view",
      "type": "function"
    },
    {
      "constant": false,
      "inputs": [
        {
          "name": "newOwner",
          "type": "address"
        }
      ],
      "name": "transferOwnership",
      "outputs": [],
      "payable": false,
      "stateMutability": "nonpayable",
      "type": "function"
    },
    {
      "anonymous": false,
      "inputs": [
        {
          "indexed": false,
          "name": "owner",
          "type": "address"
        },
        {
          "indexed": false,
          "name": "text",
          "type": "string"
        },
        {
          "indexed": false,
          "name": "color",
          "type": "string"
        },
        {
          "indexed": false,
          "name": "size",
          "type": "uint256"
        },
        {
          "indexed": false,
          "name": "time",
          "type": "uint256"
        }
      ],
      "name": "NewWord",
      "type": "event"
    },
    {
      "constant": false,
      "inputs": [
        {
          "name": "_text",
          "type": "string"
        },
        {
          "name": "_color",
          "type": "string"
        },
        {
          "name": "_size",
          "type": "uint256"
        }
      ],
      "name": "addWord",
      "outputs": [],
      "payable": false,
      "stateMutability": "nonpayable",
      "type": "function"
    },
    {
      "constant": false,
      "inputs": [
        {
          "name": "_owner",
          "type": "address"
        }
      ],
      "name": "getWordByOwner",
      "outputs": [
        {
          "name": "",
          "type": "uint256[]"
        }
      ],
      "payable": false,
      "stateMutability": "nonpayable",
      "type": "function"
    }
  ],
  "bytecode": "0x6060604052336000806101000a81548173ffffffffffffffffffffffffffffffffffffffff021916908373ffffffffffffffffffffffffffffffffffffffff160217905550610b0d806100536000396000f30060606040526004361061006d576000357c0100000000000000000000000000000000000000000000000000000000900463ffffffff1680634db511a214610072578063884fc838146101005780638da5cb5b14610283578063b3e5d204146102d8578063f2fde38b14610381575b600080fd5b341561007d57600080fd5b6100a9600480803573ffffffffffffffffffffffffffffffffffffffff169060200190919050506103ba565b6040518080602001828103825283818151815260200191508051906020019060200280838360005b838110156100ec5780820151818401526020810190506100d1565b505050509050019250505060405180910390f35b341561010b57600080fd5b61012160048080359060200190919050506104e8565b604051808673ffffffffffffffffffffffffffffffffffffffff1673ffffffffffffffffffffffffffffffffffffffff16815260200180602001806020018581526020018481526020018381038352878181546001816001161561010002031660029004815260200191508054600181600116156101000203166002900480156101ec5780601f106101c1576101008083540402835291602001916101ec565b820191906000526020600020905b8154815290600101906020018083116101cf57829003601f168201915b505083810382528681815460018160011615610100020316600290048152602001915080546001816001161561010002031660029004801561026f5780601f106102445761010080835404028352916020019161026f565b820191906000526020600020905b81548152906001019060200180831161025257829003601f168201915b505097505050505050505060405180910390f35b341561028e57600080fd5b61029661054b565b604051808273ffffffffffffffffffffffffffffffffffffffff1673ffffffffffffffffffffffffffffffffffffffff16815260200191505060405180910390f35b34156102e357600080fd5b61037f600480803590602001908201803590602001908080601f0160208091040260200160405190810160405280939291908181526020018383808284378201915050505050509190803590602001908201803590602001908080601f01602080910402602001604051908101604052809392919081815260200183838082843782019150505050505091908035906020019091905050610570565b005b341561038c57600080fd5b6103b8600480803573ffffffffffffffffffffffffffffffffffffffff16906020019091905050610868565b005b6103c2610938565b6103ca610938565b600080600260008673ffffffffffffffffffffffffffffffffffffffff1673ffffffffffffffffffffffffffffffffffffffff1681526020019081526020016000205460405180591061041a5750595b9080825280602002602001820160405250925060009150600090505b6001805490508110156104dd578473ffffffffffffffffffffffffffffffffffffffff166003600083815260200190815260200160002060009054906101000a900473ffffffffffffffffffffffffffffffffffffffff1673ffffffffffffffffffffffffffffffffffffffff1614156104d0578083838151811015156104b957fe5b906020019060200201818152505081806001019250505b8080600101915050610436565b829350505050919050565b6001818154811015156104f757fe5b90600052602060002090600502016000915090508060000160009054906101000a900473ffffffffffffffffffffffffffffffffffffffff1690806001019080600201908060030154908060040154905085565b6000809054906101000a900473ffffffffffffffffffffffffffffffffffffffff1681565b60006001808054806001018281610587919061094c565b9160005260206000209060050201600060a0604051908101604052803373ffffffffffffffffffffffffffffffffffffffff16815260200189815260200188815260200187815260200142815250909190915060008201518160000160006101000a81548173ffffffffffffffffffffffffffffffffffffffff021916908373ffffffffffffffffffffffffffffffffffffffff160217905550602082015181600101908051906020019061063d92919061097e565b50604082015181600201908051906020019061065a92919061097e565b5060608201518160030155608082015181600401555050039050336003600083815260200190815260200160002060006101000a81548173ffffffffffffffffffffffffffffffffffffffff021916908373ffffffffffffffffffffffffffffffffffffffff1602179055507f67ee3b95c4cca38c6113e34d51f352f87bc76ae15830f931f22f0f7604a0b3c83385858542604051808673ffffffffffffffffffffffffffffffffffffffff1673ffffffffffffffffffffffffffffffffffffffff1681526020018060200180602001858152602001848152602001838103835287818151815260200191508051906020019080838360005b8381101561076e578082015181840152602081019050610753565b50505050905090810190601f16801561079b5780820380516001836020036101000a031916815260200191505b50838103825286818151815260200191508051906020019080838360005b838110156107d45780820151818401526020810190506107b9565b50505050905090810190601f1680156108015780820380516001836020036101000a031916815260200191505b5097505050505050505060405180910390a1600260003373ffffffffffffffffffffffffffffffffffffffff1673ffffffffffffffffffffffffffffffffffffffff1681526020019081526020016000206000815480929190600101919050555050505050565b6000809054906101000a900473ffffffffffffffffffffffffffffffffffffffff1673ffffffffffffffffffffffffffffffffffffffff163373ffffffffffffffffffffffffffffffffffffffff16141561093557600073ffffffffffffffffffffffffffffffffffffffff168173ffffffffffffffffffffffffffffffffffffffff1614151561093457806000806101000a81548173ffffffffffffffffffffffffffffffffffffffff021916908373ffffffffffffffffffffffffffffffffffffffff1602179055505b5b50565b602060405190810160405280600081525090565b8154818355818115116109795760050281600502836000526020600020918201910161097891906109fe565b5b505050565b828054600181600116156101000203166002900490600052602060002090601f016020900481019282601f106109bf57805160ff19168380011785556109ed565b828001600101855582156109ed579182015b828111156109ec5782518255916020019190600101906109d1565b5b5090506109fa9190610a74565b5090565b610a7191905b80821115610a6d57600080820160006101000a81549073ffffffffffffffffffffffffffffffffffffffff0219169055600182016000610a449190610a99565b600282016000610a549190610a99565b6003820160009055600482016000905550600501610a04565b5090565b90565b610a9691905b80821115610a92576000816000905550600101610a7a565b5090565b90565b50805460018160011615610100020316600290046000825580601f10610abf5750610ade565b601f016020900490600052602060002090810190610add9190610a74565b5b505600a165627a7a723058208c7cf8d699d5cf8076fedcd7decbe83f675b7ca2857b4366c00f3a84a79b2bef0029",
  "source": "pragma solidity ^0.4.2;\n\nimport \"./zeppelin/ownership/Ownable.sol\";\n\ncontract WordFactory is Ownable {\n\n  //Event\n  event NewWord(address owner, string text, string color, uint size, uint time);\n\n  // Struct\n  struct Word {\n    address owner;\n    string text;\n    string color;\n    uint size;\n    uint time;\n  }\n\n  // Array of Words\n  Word[] public words;\n\n  // Mapping\n  mapping (address => uint) OwnerWordCount;\n  mapping (uint => address) WordToOwner;\n\n  // Add word\n  function addWord(string _text, string _color, uint _size) public {\n    uint id = words.push(Word(msg.sender, _text, _color, _size, block.timestamp)) -1;\n    WordToOwner[id] = msg.sender;\n    NewWord(msg.sender, _text, _color, _size, block.timestamp);\n    OwnerWordCount[msg.sender]++;\n  }\n\n\n  // Get words by owner\n  // Returning an array with words ID instead of an array of Word because\n  // returning array of struct is currently experimental: 'pragma experimental ABIEncoderV2;'\n  function getWordByOwner(address _owner) public returns(uint[]) {\n    uint[] memory result = new uint[](OwnerWordCount[_owner]);\n    uint counter = 0;\n    for(uint i = 0; i < words.length; i++) {\n      if (WordToOwner[i] == _owner) {\n        result[counter] = i;\n        counter++;\n      }\n    }\n    return result;\n  }\n\n}\n",
  "sourcePath": "/home/user/blockchainDev/truffle/contracts/WordFactory.sol",
  "compiler": {
    "name": "solc",
    "version": "0.4.19+commit.c4cbbb05.Emscripten.clang"
  },
  "schemaVersion": "2.0.0",
  "updatedAt": "2018-05-09T19:10:21.736Z"
}